:1040000008100020D1720000BD9E0200394200005D
:1040100039420000C59E0200CD9E020039420000D8
:1040200039420000394200003942000039420000A4
:10403000D19E02004048030039420000394200008E
:104040003942000039420000394200004962000054
:104050003942000039420000394200003942000074
:10406000394200003942000095A1000055080100C6
:10407000E9070100394200003942000039420000DE
:104080003942000039420000394200003942000044
:1040900039420000D9420000394200003942000094
:1040A00039420000B9420000994200003942000044
:1040B000394200003942000039420000C1000300CB
:1040C000851A0300811A030025F802009B1A0300D9
:1040D000891A0300810003008D1A0300B5E4020071
:1040E000010103003942000039420000394200005A
:1040F00039420000394200003942000039420000D4
:1041000039420000394200003942000039420000C3
:1041100039420000394200003942000039420000B3
:1041200039420000394200003942000039420000A3
:044130003942000010
:10413400F0B5114A114C124E00F00105E3695F0716
:1041440013D40DB9334213D103EA00078F4207D1C8
:104154000B4A1A40002A0CBF00206FF00100F0BD8A
:10416400013AEBD16FF00200F9E74FF0FF30F6E7C8
:104174006FF00100F3E700BF809698000000035041
:10418400020001002DE9F84F264D1646EB69012285
:1041940003F4803841F671330746EB63224BDFF8B2
:1041A4009090DA600EB9304629E007F5005404EA2D
:1041B40009046F61E41BEB69B44228BF34465B0712
:1041C4002DD48B465BF8043B01EB040AAB61D34569
:1041D4000ED10423002121202B61FFF7A9FF70B920
:1041E4002120FFF7A5FF50B959462744361BD9E7CC
:1041F40008210846FFF79CFF68B104232B610122C4
:104204000A4BDA60B8F1000F03D00022A3F5005383
:10421400DA63BDE8F88F5BF8043BAB61D7E74FF096
:10422400FF30ECE70000035000100350002003505F
:0442340000E0FFFFA8
:10423800FEE72DE9F04104460C264FF00108134D26
:104248000CB314F001000BD0002024F0010406FB8D
:1042580000525768002FF3D09168C0B2B847EFE713
:104268002246013020284FEA520201D0D307F8D560
:1042780008FA00F20F2824EA0204E8D9103806FBED
:104288000052B432E5E7BDE8F08100BF0810002015
:10429800064BD3F82404D3F8202403F50053104028
:1042A80000F05530C3F82004C3E700BF00C0035036
:1042B800064BD3F82404D3F8202403F50053104008
:1042C80000F0AA30C3F82004B3E700BF00C00350D1
:1042D8001A4B2DE9F0411F6D5B6D1F4000D5FEE7BD
:1042E80001260025164CDFF8608037421CD0C8F83C
:1042F80050602368C3B1A168284601316268A16093
:104308009847637B012B0FD170B90E4B03EB451314
:1043180093F8F42160F3410283F8F42193F804221E
:1043280060F3410283F804220135082D4FEA46065E
:1043380004F11004D9D1BDE8F08100BF0000045099
:104348007011002008100020002004504369426CBE
:10435800D91C143AB1FBF2F103EBC1000330B0FBF6
:10436800F2F00230704738B505460C46FFF7EEFF0D
:104378006A6CE31D143AB3FBF2F3013304EBC30494
:1043880002FB004038BD38B5054644692146FFF7B1
:10439800EAFF6A6CE31D143AB3FBF2F3013304EB52
:1043A800C304204438BD73B506460D460024F36B9C
:1043B80001225B6901A928199847019B013309D19A
:1043C800736C043462196A405B421A42EFD020468B
:1043D80002B070BD0024FAE7D01E009B4242424161
:1043E800187E824211D11A688A420ED85A688A42C7
:1043F8000BD35A6901325A61D3E9030282423FBFA3
:10440800986840F8221001321A6101207047002391
:104418004FF0FF3230B544689C4202D1002303724A
:1044280030BD016801EBC30541F833206A600133F0
:10443800F2E70023F0B545689D4210D00468DF001C
:1044480054F8332004EBC306B2F1FF3F08D0C2F39F
:104458001302914204D14FF0FF33E3517360F0BD72
:104468000133E9E710B5032A029C07D1A26A534039
:10447800626C5242134201D1FFF7DBFF012010BDED
:104488000023F0B545689D4202D14FF0FF300EE0A1
:104498000468DE0054F83340671C09D0C4F31307DE
:1044A800B94205D1240D1470036833445868F0BD2F
:1044B8000133E8E773B5164600F108040D462046B7
:1044C80009680DF10702FFF7DBFF032E05D16B68C2
:1044D800834202D12046FFF7ACFF012002B070BD35
:1044E8002DE9F043466886B3056898464FF0000CFE
:1044F800A946AE4655F83C400CF1010CC4F313072D
:10450800013401D0B94217D066450EF1080EF1D139
:104518002F46002403E0A64207F1080712D055F8F9
:10452800343001340133F6D1C1F3130141EA0851A3
:10453800C7E90012BDE8F08341EA0851CEE900124C
:10454800BDE8F083B8F1030F03D101230372BDE87E
:10455800F083002303E09E4209F10809F5D055F8DD
:1045680033400133C4F30754032CF4D1C1F31303CC
:1045780043EA0853C9E90032BDE8F08308B50830BA
:104588001346D1E90012FFF7ABFF012008BD41F641
:104598007132044B0020DA63012203F50053DA601C
:1045A800704700BF0000035041F671320121044BEF
:1045B800DA6303F50052D1600022DA63704700BF66
:1045C80000000350704737B5054601F10C044369F4
:1045D80001A9012220469847BDF804300122009322
:1045E80069462046AB69984703B030BD124B10B5F9
:1045F8000446D3F8200100F00700042816D8DFE8A5
:1046080000F003090D111800012304B1206001B165
:104618000B6010BD094B18680423F6E7074B586870
:104628000323F2E72DF028FB0523EEE700231846C5
:10463800EBE702230248E8E7008000500C4800201E
:10464800002D31012DE9F84341F671334FF001088F
:104658001E4D0446EF69EB631D4B0021C3F80C8027
:104668000223686121202B612FF016F8DFF868908B
:10467800064607F4803740B1C9F80C8007B1E963F2
:1046880001360CD16E20BDE8F88321202FF004F804
:10469800C9F80C8007B1EE63431CF3D008B1712050
:1046A800F1E70C4B9A6801230A3202F01F0293408B
:1046B80023F0030323449C4201D10020E3E754F88C
:1046C800042B0132F7D03E20DDE700BF0000035085
:1046D800001003500080E00F002003504FF0B0435B
:1046E8005A6812B19A6A002AFAD1704700280CDB7E
:1046F80001220649430900F01F008240203341F897
:104708002320BFF34F8FBFF36F8F704700E100E0A6
:104718004FF06042D2F8803E1B02FBD4704780F80D
:104728009910704790F89900704790F89600704774
:10473800D0F8A4309A695206FCD50020D963704796
:10474800D0F8A4309A69120643BF5B6A00200B7048
:104758001B2070470122D0F8A43019B103F580530B
:10476800DA64704703F50053DA649A647047174BAC
:10477800B3F8E802020A10F0FF00134604D1012A38
:1047880023D143F080007047072BFAD801A252F8D2
:1047980023F000BFC14700008B470000BD47000061
:1047A800D1470000D1470000C5470000C9470000B5
:1047B800CD4700000920704718467047032070470E
:1047C8000B20704706207047022070470810002011
:1047D8004BF6EF6283B2002B08BF1346044A000C65
:1047E80013814FF6CE2308BF18465081704700BF8B
:1047F8000C4800202DE9F74F002900F0DF80D0E9B0
:10480800054EEFF3118B302383F3118811F8086CF0
:1048180031F806CCF30702D5BCF1000F07D18BF3B2
:104828001188BFF36F8F012003B0BDE8F08F836854
:10483800D0F81090A3EBCC0331F8048C009383607C
:1048480009F10103A1F108050CF101020361B8F1B6
:10485800000F3AD0A5EBC803DF88B3F802A0019790
:104868001F7806F00206FF0724D426BB019EA6EB9C
:104878000A06012E29D1009E0CF10202A6F10807B2
:104888005244C0F81090876031F8028CB8F1000FDC
:104898001DD111F8085C21F8068C68F3000501F8B1
:1048A800085C013A5A801A7868F300021A700022EC
:1048B800DA803FE04EB111F8086C42446FF34106CC
:1048C80001F8086C00269E80DEE72B46DCE705EB46
:1048D800C809D0E900673744B9450ED311F8085C18
:1048E800013A6FF3000501F8085C002521F8065C21
:1048F8005A801A7865F30002D8E715F838504E4602
:1049080015F0010530D011F8085C013A6FF3000585
:1049180001F8085C002592B221F8065C5A801A78E2
:1049280065F300021A70C3F107023244C2F3CF02E2
:10493800DA80B280002C3FD0A3423DD36288002A9F
:1049480008BF1C46BEF1000F06D0734504D8BEF858
:104958000220002A18BF7346C0E905438BF311886B
:10496800BFF36F8F00205FE7A8EB0C08B8F1010FC9
:10497800C9D1B9F80270A9F802501744B9F806204D
:10498800C2B109EBC20600250269013A02618268D8
:10499800083A826011F8082C21F8065C6FF30002CF
:1049A80001F8082C1A785F8065F300021A70002E4F
:1049B800B9D17CE71646E6E71C46C3E7222033E771
:1049C80038B5202204460D460C3000212CF0D2FACE
:1049D8004FF0FF33C4E90035A36038BD1FB500238D
:1049E8009A6AB2F5804F19D2146BB4F5804F15D27C
:1049F80001A8CDE9023322F045FE039BDB030DD568
:104A0800029B1A0E0AD0012A03D1C3F307430A2BCB
:104A180004D9236C04B0BDE81040184740F20110D7
:104A280004B010BD10B5044644EA010313F00303B3
:104A3800084609D1934201D1002010BD54F8231033
:104A480040F823100133F5E7214692002DF0F7F8DE
:104A5800F2E72528F8B5054602D82C462046F8BDC9
:104A68000024084E084F0021384625F03BF98442BF
:104A7800F3D2262CF1D056F8043BAB42EED00134E9
:104A8800F1E700BF004003000813002070B5940050
:104A9800224605460E462EF0FBFD431C0AD058B9A7
:104AA8002246314628462DF0D7F8002814BF3D206D
:104AB800002070BD6E20FCE77120FAE738B5074D7D
:104AC800084695F868431146054A2346928922F01C
:104AD80013FD10B9013485F8684338BD081000206B
:104AE8000C48002038B5074D084695F8694311462B
:104AF8002346112222F000FD10B9013485F86943DC
:104B080038BD00BF081000202DE9F743D0E9043470
:104B180004F17C07D0F80C900646013B10220021D6
:104B28003846D4F874809DB22CF024FA0B4BC5F3A8
:104B38000A0543EA0513C4E91F39012394F87800EC
:104B480084F88C30C4F884803A46054B009604F10A
:104B5800640125F091F903B0BDE8F083000010303E
:104B68006D4B0000536910B514460022D3F890002D
:104B780083F88C2028B10168C3F890100260FFF711
:104B8800C3FF63681BB100212046A2689847002034
:104B980010BD034693F89420084610B5FAB10A6987
:104BA800B2F5006F1DD8EFF31184302282F311881B
:104BB80093F88C204B617AB103F19002D3F89030CE
:104BC8003BB90360106084F31188BFF36F8F002036
:104BD80010BD1A461B68F3E7FFF796FFF3E70E20B0
:104BE800F6E72120F4E713B504460DF10701007D2F
:104BF8002EF0E6FB9DF8073043B1236DD4E912028D
:104C08000244934218BF184602B010BD3022237DDB
:104C1800534303F1A04303F58023DB6EEEE72DE950
:104C2800F84F884693469946EFF3118A4FF02001D2
:104C380081F311881F4F3B78532B01D008F01CFDDE
:104C4800D7F8C051D7F8BC61B5422BD9D7F8B841CD
:104C5800D7F8B411641B5C4528BF5C46404629441C
:104C680022462CF0ECFFD7F8B83125449D4208BF06
:104C78000025A044ABEB040B761B5E4528BF5E46BF
:104C880046B1D7F8B4113246294440462CF0D7FF34
:104C98003444354444B98AF311881B20C9F80040CC
:104CA800BDE8F88F0024E7E7C7F8C0518AF31188F8
:104CB8000020F3E700500020282307B5054A3D20CF
:104CC800CDE9003204497023022208F0CFFD03B079
:104CD8005DF804FB3800E00FA836030030B4044642
:104CE800EFF3108072B6256885EA02030B406B402B
:104CF800236030BC2EF07FBBBFF34F8F0549064BB6
:104D0800CA6802F4E0621343CB60BFF34F8F00BF61
:104D1800FDE700BF00ED00E00400FA054FF0FF30AA
:104D28007047FEE70020704700207047002070475A
:104D3800002808DB01224309034900F01F008240D4
:104D4800603341F82320704700E100E02DE9F84383
:104D5800894617460446002860D00F2960D8037892
:104D6800002B4BD0013BDBB2022B59D82E4A1344FF
:104D780093F89C306278D340DB0751D52B4ED6F898
:104D88001053002D4ED1EFF31188302282F3118891
:104D9800D6F8101309F1FF310E292078637832D83C
:104DA800012142439940164457B341F21002B150D1
:104DB8004A4600EB4000072B4FF00F014FEA001660
:104DC80023D89B001A489A4099403044FFF786FF41
:104DD800B9F1000F0BD101223020637821789A4075
:104DE800124B00FB0133B7B141F210015A5088F35E
:104DF8001188BFF36F8F2846BDE8F8837F23B9E792
:104E080042F21002D3E72A46D3E7083B9B00094841
:104E18009A409940D9E742F21001E7E72225EAE7EC
:104E28002125E8E70225E6E7FC3F030000C0035020
:104E380004C003500CC0035010B520B3037803B36B
:104E4800013BDBB2022B20D8114AD35C4278D34015
:104E5800DB071AD5EFF31184302181F31188037829
:104E680001224B4341F21001407803F1A0438240F4
:104E780003F570335A5084F31188BFF36F8F002005
:104E880010BD7F23E2E72220FAE72120F8E700BFE0
:104E98009840030010B520B3037803B3013BDBB29D
:104EA800022B20D8114AD35C4278D340DB071AD5AD
:104EB800EFF31184302181F31188037801224B43E9
:104EC80042F21001407803F1A043824003F57033A9
:104ED8005A5084F31188BFF36F8F002010BD7F23D1
:104EE800E2E72220FAE72120F8E700BF9840030014
:104EF8000B4B93F8742362B107280CD803EB00130B
:104F080093F874314BB10123064A8340136400209F
:104F1800704705487047054870470548704700BF07
:104F28000810002000100450028000F0018000F0FA
:104F3800078000F00B4B93F8742362B107280CD854
:104F480003EB001393F874314BB10123064A8340F5
:104F580013640020704705487047054870470548A6
:104F6800704700BF0810002000200450028000F0A5
:104F7800018000F0078000F0014638B508B901202B
:104F880038BD047D2046FFF7B3FF3023634303F1A8
:104F9800A04303F580232046DD6EFFF7CBFF0A4BC5
:104FA8009D421CBF042381F8A13091F8953091F8F7
:104FB800A1002BB1022803D1012381F8A130DFE73A
:104FC8000428DCD1F8E700BF7D13002010B5EFF30B
:104FD8001184302383F3118800220E490B7B73B9A7
:104FE8000D49026001EB02120121C2F8683182F812
:104FF800741184F31188BFF36F8F184610BD013206
:10500800082A01F11001E9D184F31188BFF36F8FE9
:105018000248F3E77011002008100020048000F017
:1050280073B5054690F842601C4630460DF10303FF
:1050380024F0FEFCEB6B012E5B690DD1324601A911
:1050480098479DF8033013B1BDF806300193BDF8B9
:105058000430236002B070BD0122214602B0BDE8D1
:105068007040184703460846EFF3108172B6034AAA
:10507800DB6BC2F87813DB68184700BF0810002004
:105088002DE9F0410646406882B0C0B10F4690460F
:105098000024336853F8345003EBC403C5F30752B4
:1050A800C5F31301013504F1010406D05B683046ED
:1050B800CDF80080B84710B170688442E9D302B0D7
:1050C800BDE8F081036813F07E0F03D1406820F03B
:1050D8007C40704713F078001CBF03F07F03D81F93
:1050E8007047202A0B681EBF4FF0FF3191408B4359
:1050F800590801F055315B1A03F033319B0803F06E
:1051080033330B44017803EB13130A444FF0013196
:1051180003F00F334B43A2EB1362027070472DE983
:10512800F041054600244868EB6B86B00E46012224
:105138005B69029402A908309847A04695F8423066
:10514800012B40F08180632C03D9029806B0BDE89A
:10515800F081612C08D805AB224631462846FFF776
:105168005FFF9DF8143013B305AB2246314628463D
:105178008DF81080FFF754FF95F84230059F012BFA
:1051880052D14FF6FF739F4200F09180082205A983
:1051980004A8FFF7A6FF9DF81020C7F307239A423B
:1051A80040F08580FFB2029B3B4402937FE095F874
:1051B8004230012B2ED122463146284603ABFFF759
:1051C8002FFF3146284604AB621CFFF729FF314602
:1051D800284605ABA21CFFF723FF102208230DEB7E
:1051E80002010DF107008DF80730FFF77AFF102252
:1051F80005A9FFF776FF039BDAB2002A50D19DF884
:105208000720B2EB132F4BD1DDE9043203EB024345
:10521800029345E0302C29D942E09DF80720B2EBF3
:10522800134F3DD1049BF3E77B1C40D0102205A906
:105238000DEB0200FFF755FF9DF81020C7F3074359
:105248009A4234D1BFB2AEE7312C3FF67EAF8BD055
:1052580005AB224631462846FFF7E2FEBDF814307A
:10526800002B81D195F84230012BA4D0224631463B
:10527800284603ABFFF7D4FE3146284604AB621C30
:10528800FFF7CEFE102320220DEB03010DF10700DE
:105298008DF80730FFF725FF039B9AB2002ABCD090
:1052A80095F84230012B14BF012302231C4401341A
:1052B80044E737B5044600251B22011D0DF1070000
:1052C8008DF80750FFF70DFF63689DF80720B2EBD4
:1052D800D36F03D123F0784003B030BD1B2204F113
:1052E80008018DF80750FFF7FCFEA0689DF807300D
:1052F800B3EBD06F0ABFC0434FF0FF3020F07840C7
:10530800EAE74BF29A22036810B5B2EB134F044652
:1053180013D19BB2012B15D1FFF7CBFF013011D070
:105328004FF6FF72E068B2EB104F4FEA10430BD113
:1053380080B2C01A18BF012010BD013314BF042069
:105348000320F9E70420F7E70220F5E7F0B5054662
:10535800002687B0EC69013CB44203D80C462046CD
:1053680007B0F0BD01B14C1E6F6C2868EB6B0522CD
:105378005B6901A907FB0400984701A8FFF7C1FF73
:105388000128ECD921460136E4E70368F0B5CC1AC8
:10539800436C0646B4FBF3F4002587B0F36937681D
:1053A8005A1E9542706C06D3736C306803FB040078
:1053B800143007B0F0BD0134B4FBF3F203FB124420
:1053C800F36B05225B6901A900FB0470984701A8EB
:1053D800FFF797FF0128E7D90135DFE710B423F07D
:1053E800030422449B070A44436C18BF04325B42FF
:1053F80082EA0104234202D05DF8044BC5E7104657
:105408005DF8044B70472DE9F04F144606460F46E9
:105418008BB00393C36B01225B6907A96068984747
:10542800F36B01225B69384606A99847079B5D1C08
:1054380007D10022A360A275627500200BB0BDE8F9
:10544800F08F0122A2750022217E069D04EBC10186
:10545800CF610A846068C5F3D31CB84205F07F01A8
:105468000CD14FF0FF33C4F800C02175A360237D31
:10547800043B022B26D80023A375DEE794F814E03A
:1054880020688E4503D1A0EB0C004242424103F054
:105498007F0001288CBF0020012001298CBF00213A
:1054A8000121884218BF002215F07E0FA27503F073
:1054B8007E0304D1002BDAD00023A375D7E7002B95
:1054C800D5D1F9E715F07E0F0FD1F36B02223846DC
:1054D8005B6908A9984708A8FFF7F4FD237D032B0B
:1054E80051D8DFE803F0150F045906A8F4E7CC22D9
:1054F800237E04EBC3031A8401236A4A134493F8F6
:105508009F300AE0237E04EBC30318840023F4E7EA
:10551800237E04EBC30318840123149A1370069A9C
:1055280012F07E084FEAD26A227E37D1F36B04EB81
:10553800C2020AF003055B69B2F8209082F8225093
:1055480008A902223846984720220DF117000DEBD2
:1055580002018DF81780FFF7C4FD1A2209A9FFF789
:10556800C0FD9DF81730099A4FF0080BB3EB926F06
:105578000CBF012300236375637D33BB0023A37530
:105588004FF0000851E0227E013BDBB204EBC2027F
:10559800052B1084C0D8B0E70223AEE7002504EB42
:1055A800C202B2F8209082F8225006A91B2208A84D
:1055B8008DF82050FFF795FD9DF820204FF0040B43
:1055C800A2EB0A0253425341D5E794F81680B8F18A
:1055D800000FD5D0B9F1000F09D1DDB10123E37572
:1055E800637E002B35D1012D28D1657614E0736CCC
:1055F80007EB0B02594287EA020008421CBF002150
:10560800A175591E0A409B1A4B45B7D3A37D002BA1
:10561800E3D1B5E7E37D43B94FF000084B465A465E
:1056280039463046FFF7DAFEA060A27D237EBAB97C
:10563800012B33D801332376A07DFFE696F834306A
:1056480063B9F36A0133E9D1032DE7D10123A376C6
:10565800E2E7012DE9D0032DDED1F7E79846DDE733
:105668002269012B4A44226118D801332376039B0F
:10567800002BE1D0E37D002BDED0B8F1000FDBD1A9
:10568800032DD9D0A1684B1CD6D0149B2246009379
:1056980030460123FFF7B7FEA075CDE70023A375B9
:1056A800CAE700BFFC3F030013B50C460021217672
:1056B8000093616813462246FFF7A5FE18B1E37D03
:1056C80003B1A07EA075A07D02B010BD2DE9F743FF
:1056D800044616461F460D46DFF87480816AE36A61
:1056E8008B421ED04B1C1CD0DFF860904846FFF759
:1056F80067F90122494620460DF10703FFF7D4FF59
:1057080030B13B4620469DF807201049B04740B1CC
:10571800D8F884134A1C07D0012D0DD0E36A9942AA
:10572800E4D103B0BDE8F083D8F880132046FFF732
:105738002CFE012D0146D2D1D8F8803381EA03022C
:10574800636C5B421A42ECD1C9E700BF84130020A6
:10575800081000202DE9F041D0E90A369E4204469F
:1057680086B028D11422C369456802FB1355284620
:1057780006B0BDE8F0812068676C331AB3FBF7F315
:10578800E26B07FB0300D2F8148001A90522C04789
:1057980001A8FFF7B6FD012804D0636C1D44013B46
:1057A8003340ED1A31462046FFF7EFFD0646A36A5F
:1057B800B342E0D1DBE70025F9E72DE9F04F0F46CA
:1057C8009A46002389B004464FF0FF3110469046B0
:1057D8008DF80B30FFF7F4F8B7F5801F20D2394663
:1057E80003AA04F10800FEF74BFE451C014605D14B
:1057F800237CBBB92D2009B0BDE8F08F4046FFF7E8
:10580800DFF80122414620460DF10B03FFF74CFF5C
:105818000028EDD09DF80B308AF800300020EAE728
:10582800B81CE5D1E66A711C2CD12046616AFFF7E5
:105838008DFD0646BB1C18BF0123DFF8C4B00093DA
:10584800636A626C0193236803A902FB0639E36B60
:10585800484605225B6909F114099847002549461D
:105868004B1C05D0636C81EA09025B4213420FD0DE
:1058780031462046FFF76AFD019BB3422FD085BB16
:105888000646DDE72368F61A636CB6FBF3F6D1E744
:105898001A48FFF795F82046009A18490DF10B03AE
:1058A800FFF702FF8446B8B1BA1C03D0DBF8A8336F
:1058B800BB4211D145469DF80B30DFF840E08AF82D
:1058C8000030BEE80F000FC5BEE80F000FC59EE808
:1058D800070085E807006546DBF8B013C0E7002D30
:1058E80088D0B7F5801F99D239469AF80030D8F891
:1058F800042004F10800FEF7F3FD8FE7B013002041
:10590800081000202DE9FF410C4617461E460546A3
:1059180090B390F834308BB3B1F5801F30D2DFF8F4
:1059280064800121FFF79EFB214628460DF10F03F5
:1059380008F57572FFF741FF044678B99DF80F30F6
:10594800012B12D1D8F8E4339E4213D102460090BD
:1059580033463946284621F06DFF0446E86B24F0AB
:10596800B5F9204604B0BDE8F081022B14BF2D2400
:105978006024F3E76324F1E72124F2E71124F0E738
:105988002924EEE7081000202DE9F04385B00C46E5
:1059980017461E460546DDF83080A0B390F834302F
:1059A8009BB3B1F5801F32D2DFF868900121FFF771
:1059B80059FB214628460DF10F0309F57572FFF7CB
:1059C800FCFE044688B99DF80F30012B14D1D9F894
:1059D800E42306EB08039A4213D300904346324669
:1059E8003946284621F026FF0446E86B24F06EF974
:1059F800204605B0BDE8F083022B14BF2D24602497
:105A0800F3E76324F1E72124F2E71124F0E72924DE
:105A1800EEE700BF0810002073B50C461646054691
:105A280030B390F834302BB3B1F5801F24D2012164
:105A3800FFF718FB21462846104A0DF10703FFF728
:105A4800BCFE044680B99DF80730032B0CD0022B0E
:105A58000CD128460949FFF762FB3060E86B24F057
:105A680035F9204602B070BD2D24F7E76124F5E72B
:105A78002124F6E71124F4E72924F2E7DC130020B7
:105A88002DE9F3411F4600230C46164605463B60A8
:105A980058B390F8343053B3B1F5801F29D2DFF8EA
:105AA80058800121FFF7DEFA214628460DF1070349
:105AB80008F57572FFF781FE0446A0B99DF8073016
:105AC800032B10D0022B0AD10123336004233B603F
:105AD800E86B24F0FBF8204602B0BDE8F0813060A6
:105AE800D8F8E433F3E72D24F2E72124F3E711246F
:105AF800F1E72924EFE700BF0810002073B50D4631
:105B0800D11E4A421C461B7E4A419A4228D1296826
:105B18002368994224D36368994221D8124E0DF123
:105B2800070306F58062FFF748FEC8B9D6F80424D3
:105B38006B689A4214D19DF80730DA1E53425341DC
:105B4800227E93420CD1636901336361D4E9032354
:105B5800934205D22968A26842F8231001332361D1
:105B6800012002B070BD00BF0810002070B50025EC
:105B7800044686B00562E369AB4202D8206A06B0E3
:105B880070BD666C2068E36B05225B6906FB050047
:105B980001A9984701A8FFF7B4FB012898BF236A19
:105BA80005F101059CBF01332362E4E72DE9F04FBD
:105BB80097B0CDE908230F460A69416CD31D143903
:105BC800B3FBF1F3013302EBC302036B04469342C8
:105BD800C0F008820023DFF880920C93E36A9C48A7
:105BE80019460693FEF7ECFED7E903360393099BA3
:105BF800022B61D1CC2E40F0E081089B002B2DD0E8
:105C080039462046FFF78BFA656C069A6B1E1340DF
:105C18001290ED1AE36B01225B69786814A9984722
:105C2800149B13F07E0F14BF04230823782E0593CA
:105C380051D9012200234FF0080A04923A68C9F8A2
:105C4800B863C9F8A823099A032A62D0022A14D093
:105C5800049A002A14BF0022072212E0039B0122A3
:105C68001B684FF0080A12933B680492C9F8A833DE
:105C780008230593089BC9F8B863049AC2F1020285
:105C8800D2B289F8BC234FEA9A020E92069A019280
:105C980000220A920D9207920B92606C019A411EA3
:105CA8001140421A002E36D053449A423ED8236BF4
:105CB8001B1A0B44236359E1656C069A6B1E13404B
:105CC800782EA5EB030516D8FB7D7BB9089B002B26
:105CD800A0D104230593331DAB4212D9B6B1082DC8
:105CE800A7D8042300229A460492A7E7089B002B12
:105CF80090D10823EEE7089B002B8BD1082305934E
:105D080097E7002304934FF0040A97E704230496C7
:105D1800F9E7099AB5E75245C9D3B046019B534400
:105D28000293079B002B18BF032314E0A2EB0A027F
:105D3800019B9642B046534428BF90469642029330
:105D4800EFD90123D9F8B82389F8BF33964243D154
:105D5800019AC9F8AC23079399F8BF33002B3DD0BB
:105D680099F8C0230199D31C09EBC303C3F8AC13FA
:105D780007990132A3F8B08383F8B21389F8C023D6
:105D8800B8F1000F14D0099B022B2BD10A9B7BB9C9
:105D98000D9B4344032B0BD9E36B01229B690298AB
:105DA80012A998470546002840F01E8101230A934E
:105DB80099F8BC333D68274A012B02EAC51528F03B
:105DC8007C4B40F290809A1E012A03D908F1070300
:105DD80003F07F031D438CE00223BCE7019BC9F855
:105DE800AC33CDE7089B002B38D1039BB8F1030FE8
:105DF80003EB080B28D9DDE90201E36B4FEA9802AF
:105E08009B6998470546002840F0D18018F00302A6
:105E180066D0039B28F003052B440393029B1D4483
:105E28004FF0FF33039913A813932BF008FFE36B8C
:105E3800284601229B6913A998470546CDF80CB05E
:105E4800002DB5D0029B76E04246029DE8E700BFF0
:105E5800B013002080FFFF070810002007F120037F
:105E6800DDF808B00F93FB7D78689BB100233D7E79
:105E78000B9AD9B28D4211D90F9903F1010C31F85F
:105E88003310914226D9059907EBC303D8690A4410
:105E9800104403E00B9B059A13441844E36B01225A
:105EA8005B6913A99847139B012211930B9B5846D2
:105EB80004330B93E36B11A99B699847029B054632
:105EC8004344A3EB0B03042B07D9002872D10BF131
:105ED800040BC8E76346521ACBE7CDF808B0AFE722
:105EE800CDF80CB064E7079A43EAC2632B4343F04A
:105EF80060454FF000038DF84C30049BCDE9145BEE
:105F0800002B49D0202214A913A8FFF7EAF81A2277
:105F180015A9FFF7E6F89DF84C304BEA8363159313
:105F2800E36B0E9A9B69019814A99847019A051E7C
:105F38000C9B18BF134652460C93204643460199C2
:105F4800FFF74CFA236B08F10302A3EB0A0322F0D4
:105F580003029B1AC9F8B0032363002D44D10D9B9B
:105F6800A6EB080643440D93029B01932046019932
:105F7800FFF70BFA00230190002E7FF48EAE494AFA
:105F88003968D2F8B03304F10800E362D2F8AC23E0
:105F9800099BFEF7A5FA11E01B2214A913A8FFF725
:105FA800A0F89DF84C3045EAC3651495B8E7CDF8DC
:105FB8000CB047E7CDF808B044E77026304617B074
:105FC800BDE8F08F002650E03A69616CD31D1439A2
:105FD800B3FBF1F3013302EBC302236B9342BFF42B
:105FE800FDAD5DE01C26E9E73D2D59D104F108031C
:105FF80001932668069B2046E16AD4F844A0A3EBE7
:10600800060BFFF7C2F9A26ABBFBFAFB8242DBD0A0
:10601800616CD9F8B02301F1FF3C02EA0C0C226B49
:106028000C9B521A624422632268E0629A1AB2FBFD
:10603800F1F8C345C6D10AFB0866069B06F1140BA6
:10604800B3EB0B0611D0E36BB20859469B6998472E
:106058008246E26A069B3244E262226B0198D21AB7
:106068005A442263FEF7D3F956462368616CE06B05
:1060780001FB0831FEF7A7FA2046FFF777FD204617
:10608800FFF768FB2063002E9ED03A69616CD31D30
:106098001439B3FBF1F3013302EBC3029042A8D2E7
:1060A8002E468BE7081000202DE9F3471E4643696A
:1060B8000446B342884617469DF8289074D30025B5
:1060C8008DF807502046FEF75EF9D4F830A08245D7
:1060D8000AD2236AB5EB430F06D220460DF1070119
:1060E80021F0E6FA00285DD09DF80730012B04D195
:1060F80020460DF1070121F0DBFAB9F1030F06D0B4
:1061080031462046FEF72FF9256B85424ED3284DA0
:106118004FF0FF3105F58060FEF752FC4B46002238
:10612800204605F58061C5F81064C5F80084C5F8F7
:106138000C74FFF73BFD236E06467BB32046FEF743
:1061480022F9636E256B03449D422CBF0023012373
:10615800854298BF002584F85030237C88BF2D1ACB
:10616800656584F8583073B10021204623F0BAFDE4
:1061780001210546204623F0B5FDE2682B1893421D
:1061880094BF00239B1AE36594F8503013B994F830
:1061980058301BB1236E04F150009847304602B0C6
:1061A800BDE8F08701358DE76226F7E71C26F5E79D
:1061B800081000202DE9FF410F4690461E4605466F
:1061C800A8B390F83430A3B3B1F5801F33D21B4C79
:1061D8000221FEF747FF04F57572394628460DF18E
:1061E8000F03FFF7EAFA024678B10123424600930B
:1061F800394633462846FFF757FF0446E86B23F035
:1062080065FD204604B0BDE8F0819DF80F30012BF4
:10621800EBD1D4F8E4138E42E7D1009341463346DC
:10622800284621F007FB04460028DED1E6E72124B2
:10623800E7E71124E5E72924E3E700BF0810002079
:1062480007B5204890F82C3403B9FEE700236A46C6
:10625800CDE900331C49082300F54070FFF752FBD5
:10626800E8B91A4AD2F84031D2F840211F2B4FF032
:1062780001030FD9203A9340019A1A430192082347
:106288006A4611491248FFF795FF124B124A1A60E5
:10629800FEF732FD9340009A1A430092EFE72D284B
:1062A800F3D10A4AD2F84031D2F840211F2B4FF0DF
:1062B800010385BF203A93409340019398BF009310
:1062C800DDE700BF081000200071080000800044CE
:1062D80008130020000000200B020FF070B586B0F4
:1062E8000E4605460392A0B390F834309BB3B1F53F
:1062F800801F32D20221FEF7B5FE31462846184AE1
:106308000DF11703FFF759FA044618B99DF817302D
:10631800032B0ED10223314600932846CC2303AA2F
:10632800FFF7C2FE0446E86B23F0D0FC204606B017
:1063380070BD022B0BD10A492846FEF7F0FE0399DF
:1063480002468142EFD0284623F0D6FBEAE76124D3
:10635800E9E72124EAE71124E8E72924E6E700BF72
:10636800DC13002030B50C46054685B028B390F8FC
:10637800343023B3B1F5801F23D20221FEF772FE19
:106388000DF10F03214628460F4AFFF716FA034678
:1063980088B99DF80F20032A0DD0032221460092C8
:1063A80002462846FFF780FE0446E86B23F08EFC81
:1063B800204605B030BD2D24F7E72124F8E7112445
:1063C800F6E72924F4E700BFDC1300202DE9F341A8
:1063D800089C032A1746266806D1237A012B25D064
:1063E800012002B0BDE8F081DFF8988030460DF159
:1063F800070308F58062FFF7E0F960600028ECD138
:106408002568D8F80434A96AD5F844C04B40CCF1C3
:1064180000021340207AE0D1012809D1E068D8F8B9
:10642800102402447069824202D92374207CD8E780
:106438002868EB6A1B1A081AB3FBFCF3B0FBFCF0E4
:1064480083420BD1706CF36A421E1340326B121AEE
:10645800134428463363FEF798FFE862D8F81024FF
:10646800E36808321344E36001223B46044920688C
:10647800FFF79CFB60600028AFD00020B1E700BFA9
:106488000814002008100020032A2DE9F3410646CD
:106498000D4617461C4606D1237A012B24D001202D
:1064A80002B0BDE8F081DFF8608009680DF10703EC
:1064B80008F58062FFF781F960600028ECD19DF84B
:1064C8000720237A032AE7D0D8F804146A6891428F
:1064D800E2D1012B2969D4F80CC007D172690CEB01
:1064E8000103934202D92074207CD9E70831614422
:1064F800E1603B46012229463046FFF757FB6060C2
:106508000028C9D00020CBE708100020F0B50446C9
:106518000D46466CE36B006887B005225B6901A9EC
:1065280006FB0500984701A8FEF7EBFE012804D8F2
:1065380001A8FEF7BEFE07B0F0BD29462046FEF7CB
:1065480005FF0646676C2068E36B05225B6901A9B5
:1065580007FB0600984701A8FEF7ABFE431CEAD0EC
:10656800B54238BF0130E6E72DE9F04306469946C3
:1065780089B0036908460F469046984704460028A4
:1065880067D1D9F804305B0A012B22464FEA53033E
:1065980004F10104F8D899F8035099F802302D0352
:1065A800DB0203F4006305F480551D43B9F800309D
:1065B8004FF00009C3F30A0352032B4492B29D180B
:1065C800294B0DF107001B2228F0784402A90393F8
:1065D80002948DF80790FEF784FD9DF807306FEA66
:1065E800054544EAC36404946FEA08041B2224F0B6
:1065F800784402A902948DF80790FEF772FD9DF881
:1066080007306FEA154544EAC3644FF0FF330122AF
:106618000594069307A9B369079507F110009847F1
:1066280001220446B36905A907F108009847012229
:10663800484518BF0446B36904A9381D9847012284
:10664800484518BF0446B369384603A9984728B196
:10665800044639463046FDF7B6FF01E0002CF8D174
:10666800204609B0BDE8F08301009AB238B5044667
:10667800456C006804F1400305FB0101E06BFFF77E
:1066880073FF05462046FFF771FA284638BD2DE905
:10669800F04F4FF0FF334FF6FF720025044600F12C
:1066A8000808C0E909238BB0C36205620563404648
:1066B8008B46FDF7ACFE2046FFF758FA50BB4FF665
:1066C800FF79676A00264F4514BF3D460025E369F8
:1066D8009E4248D32046FFF749FA18BB5E200BB00C
:1066E800BDE8F08F2368E26B606C566900FB0530EB
:1066F800052205A9B04705A8FEF703FE012828D101
:1067080029462046FFF702FF421C29462046FFF78C
:10671800ADFF0135E3699D42E4D32046FFF726FA31
:106728000028CCD000254FF0FF394FF6FF734F46B5
:106738002E46C4E90853E3699E423ED3A5EB0905FA
:10674800012D5BD84FF6FF72636A934268D16720C8
:10675800C5E70338C0B20128DBD829462046FFF731
:10676800D5FE0246D1E7E26B2368606CD2F814C00C
:1067780000FB0530052205A9E04705A8FEF7C1FD85
:10678800022807D04F450DD10BF1010229462046BA
:10679800FFF76CFFE3690135B5FBF3F2013603FB44
:1067A800125594E729462046FFF7B0FEB0F1FF3FA7
:1067B80014BF02465A460132E8E7E26B2368606C70
:1067C800D2F814C000FB0630052205A9E04705A849
:1067D800FEF797FD01280FD805A8FEF76AFDB84215
:1067E80038BF6662814528BF8146854238BF054665
:1067F8000746236A0133236201369CE74FF6FF738D
:1068080000256362E3699D429CD2666C2068E36B55
:1068180006FB050005225B6905A998470135F1E7E4
:10682800E26B666C206855696946052206FB030021
:10683800A847626A616C23684A4D01FB023314332E
:10684800A3624FF0FF336FF00101E362204605AB0E
:1068580005F58062FEF7B1FF002849D1D5F8085444
:1068680029462046E562FDF79EFD206320B92046B3
:10687800E16AFEF78AFDE06229462046FEF785FDBB
:106888000546A36A9D4235D12046FDF75FFD0026E7
:1068980007463546E3699D423ED3B74257D920465D
:1068A800616AFEF753FD4FF00008054604F1400AFF
:1068B800464512D8626C2368694602FB0539E36BCA
:1068C80005225B69484698476846FEF7F2FC53463E
:1068D80002464946E06BFFF747FE29462046FEF789
:1068E80035FD08F1010847450546E1D16420F6E683
:1068F800A56AB5E729462046FDF755FD236B2946CD
:106908000344064623632046FEF73FFD0546002E56
:10691800B7D1C4E90B06B4E7626C236805A902FB8A
:106928000539E36B05225B694846984705A8FEF7D9
:10693800E8FC012809D8204609F11401FDF733FDC8
:10694800636C143B984208BF01360135A2E7404604
:10695800FDF75DFD002320461946034AFEF7B6FE03
:106968000020BCE608100020854500002DE9F8430A
:106978000025DFF890810E46D8F830940446C8F810
:10698800305418B921252846BDE8F88390F83470AA
:1069980007B30A6803689A4240F0A9804A684368C6
:1069A8009A4240F0A4808A6883689A4240F09F80A7
:1069B800CA68C3689A4240F09A800A6943699A4251
:1069C80040F095808A69C36B9A4240F090804B6989
:1069D8008361D8E768223946856B2AF0CBFA336899
:1069E80004F1080023607368A56363603369636119
:1069F8007369A361D6E90223C4E90223FDF707FD01
:106A0800B36904F14000E3639B68984720B9676C59
:106A180017B16368B3FBF7F794F84330E761002BCD
:106A2800B0D00023656C2366002D68D0002F66D097
:106A38002368B3FBF5F205FB1233002B59D16768C5
:106A4800B7FBF5F605FB1676002E52D12046FDF76A
:106A58009AFCA369043303449F424CD340F6347232
:106A68006369CC3B934248D8B5F5805F47D303218F
:106A78002046FEF7F7FAD4E90001E36B1B68984754
:106A88000546E36B0220DB6898472DB184F8346033
:106A9800E06B23F01BF976E749462046FFF7F7FD40
:106AA8006428054604D149462046FFF7F0FD05460F
:106AB800636C143BBDB9226A204602FB03F6FDF75E
:106AC80062FCA369043303449E4223BF012384F874
:106AD8003430D8F8343484F834502ABF01335A2576
:106AE800C8F83434D4E7002384F83430D0E75D257F
:106AF80049E7592547E75A2545E75F2543E75B25D9
:106B080041E700BF08100020014902482EE700BFF6
:106B18001C48002008130020002307B500932528EF
:106B280053D8DFE800F0135B172229344E6A767ACF
:106B38008996ABB9525B565252765B222922345B56
:106B48006A22B94E4E4E4E2222227A892BF02EF915
:106B580000903AE02BF02AF9534BD3F89030C3F366
:106B680004630133B0FBF3F0F2E72BF03DF94E4B31
:106B78001B6FC3F38023F4E72BF036F94A4B1B6FE6
:106B8800C3F380230133B0FBF3F04008E0E701933F
:106B9800454BD3F8803103F00303022B0AD0032BB3
:106BA8000CD0012B03D1002101A8FDF71FFD019B8B
:106BB80000930AE02BF060F80190F8E73B4B019353
:106BC800F5E700216846FDF711FD009803B05DF870
:106BD80004FB4FF0E0231B695A0702D52BF004F998
:106BE800B6E7314BD3F8400100F0030003282DD05D
:106BF800003818BF0120C003AAE72B4BD3F8403157
:106C080003F00303032B4BD0003B18BF0123DB0326
:106C1800CEE7254BD3F86031F2E7234BD3F80032A7
:106C280003F00700032811D05B0709D401380128B5
:106C38008CBF00200120DEE71B4BD3F80832EFE7BA
:106C4800042824D12BF0D0F8800A81E74FF47A7019
:106C58007EE7154BD3F8003103F00303022B06D06F
:106C6800032B07D0012B07D1114B5B68A0E74FF42A
:106C780000439DE70F4B9BE7002399E70A4BD3F8A6
:106C8800803003F00303022BA8D0032B01D000208F
:106C98005EE72AF0F1FF5BE7034BD3F84032AFE73A
:106CA8004FF47A7384E700BF00800050002D310153
:106CB8000C48002080D5430238B5184CFF28A26A3A
:106CC8002AD8A36D13F4803F18BF0121144B18BFB5
:106CD800996202219962A56D15F08045FBD1114991
:106CE800A36991F9381423F47F03014423F47F4303
:106CF80081F3080143EA002343EA0143A361022127
:106D08000948FDF7EBFFA36DDB0303D50121064816
:106D1800FDF7E4FF284638BD2125FBE700C00050F9
:106D280000D000500810002028C0005038B50F4C83
:106D3800A26AA36D13F4803F18BF01210C4B18BF42
:106D4800996202219962A36D5900FCD40221094875
:106D5800A569FDF7C3FFA36DC5F30725DB0303D5BD
:106D680001210448FDF7BAFF284638BD00C000508D
:106D780000D0005028C00050014B83F838047047F9
:106D880008100020014B93F93804704708100020C0
:106D9800012313481349826A8B62836D03F003034E
:106DA800032BFAD102238B620D498B6D5800FCD45A
:106DB8000D488B6D30EA0303FBD10121094B19659E
:106DC800A3F58053996D8907FCD4996D8807FCD584
:106DD800996D8907FCD503210448FDF77FBF00BFE3
:106DE80000C0005000D000500300010028C000502F
:106DF8007047F8B504460D461F4616464AB10123AA
:106E08008B403021184A01FB0022F7B141F21001F2
:106E1800535004EB4403072D4FF00F014FEA0313BF
:106E280016D8A80006FA00F2814010481844FDF769
:106E380055FF4EB9012330210B4AAB4001FB042218
:106E480077B141F210015350F8BD42F21001DFE76B
:106E5800A5F10800800006FA00F281400448E5E741
:106E680042F21001EFE700BF00C0035004C0035016
:106E78000CC0035010B50446D0F8A42093695906F5
:106E8800FCD5002394F8AA101A4694F8A900FFF735
:106E9800B0FF002394F8AC101A4694F8AB00FFF743
:106EA800A8FF94F8B130DA0707D5002394F8AE109C
:106EB8001A4694F8AD00FFF79CFF94F8B1309B0791
:106EC80007D5002394F8B0101A4694F8AF00FFF7DE
:106ED80090FF0122D4F8A43003F5005103F5805047
:106EE800CA6442600A205861002058614A6010BD97
:106EF8000123F0B5C4B21F4DD1F800C0A3408F7A6A
:106F0800CC7A0E7B2B6505F5005545F820C0302559
:106F18006843240591F80DC044EA074400F1A040F5
:106F280000F5802044EA465422F00302C0F860C00D
:106F3800C4650267EFF3118485F311880E4A087A55
:106F4800536500B11364487A00B1936308798A796C
:106F580042EA0042074882614D79CA79064942EA05
:106F680005428A61054A4363936484F31188BFF339
:106F78006F8FF0BD00200450001004500000045032
:106F88000123C0B28340EFF31180302282F31188CD
:106F9800054A516D21EA03015165936280F3118816
:106FA800BFF36F8F704700BF000004500123C0B2C9
:106FB8008340EFF31181302282F31188074AD06AA7
:106FC800184209D1526B93430CBF0120002081F372
:106FD8001188BFF36F8F70470020F8E70000045056
:106FE800114321F0F8014904034B490C41F44021B5
:106FF800063043F82010704700800350021E30B559
:107008004FF000000CBF0C25042547F6077408490B
:1070180052B9831D51F82330234023B101308542F2
:10702800F6D14FF0FF3030BD00F11203F2E700BF98
:10703800008003503AB122F0030202F1A04202F5A7
:10704800603209B9106070470002FBE7054B5B69C5
:10705800C3F38512827003F03F021B0B427003706A
:10706800704700BF00C0075007B5014601A8FFF7E9
:10707800EDFF9DF8063001220B804FF4807300204D
:107088004B80054B9B680A3303F01F0302FA03F396
:107098004B6003B05DF804FB0080E00F00207047F0
:1070A80047F6FF739A42F0B577D0022977D83D4B5F
:1070B8000B4493F8A530022B71D83B4DDE0005EB4D
:1070C800C30393F83E7493F83C04012F394638BF44
:1070D8000121012818D1002493F83F04401A844262
:1070E80005D3012F2CBFC0190130C0B2F0BD011B60
:1070F800D3F84054A0EB510135F911509542D4BF53
:107108000C4601F1FF30EAE7D3F840040028EDD03F
:10711800B0F90040A24204DCB0F902409442B8BF82
:10712800144683883544FF2B19BFC8232827B0F994
:107138000630B0F90870A3EB04030CBF012200224B
:1071480093FBF7F395F83D6413441BB29E4201DDAF
:10715800002B01DA731E1BB24FF47A7C00EBC305D7
:10716800EA88AD685F1C14FB02521D4622EAE272EF
:107178003BB25C329E42B2FBFCF204DD00EBC3077B
:10718800BF88BA42EAD900EBC5039888904228BF65
:107198001046884238BF0846A7E7FF20A6E7002028
:1071A800A4E700BFFC3F0300081000200229F0B547
:1071B80067D8354B0B4493F8A510022961D8334B97
:1071C80003EBC10393F83C14012917D193F83E440B
:1071D80093F83F04012C214638BF0121904294BF07
:1071E800C1EB0001C1EB0201001BCAB28242C8BF59
:1071F8000022D3F8403433F91200F0BD002A3ED003
:10720800D3F8401400293CD093F83E04904202D3AE
:10721800B1F90200F1E793F83F44B1F90000944254
:10722800EBD993F83D448B88013CA3F1FF067342E8
:1072380001F10405E4B2734101F10C07DEB2B44276
:1072480016D805EBC3034FF47A756A43B3F90240C5
:107258005B68D21A04EBD47302EB630292FBF4F27C
:107268009042CADBB1F902009042C6DC10B2C4E712
:1072780037F833C05E1C9445E3D33346DEE7044851
:10728800BBE70448B9E700BFFC3F03000810002033
:107298000CFEFFFF0080FFFF436813B94160704791
:1072A8005B685A68012AFBD159607047002807DBE0
:1072B80001234109034A00F01F00834042F82130AE
:1072C800704700BF00E100E008B5284B83F30A8847
:1072D8006FF00101264B274A9A60D3F8882042F4C0
:1072E8007002C3F88820244A116641F2FF71516682
:1072F8000221C3F8D010BFF34F8FBFF36F8F08215F
:107308004FF44034A3F54063C3F880110320D460E0
:10731800FFF7CCFF194B1A481C611A4BC01A801092
:1073280020F0A2F9184B19498B4212D30020184BB0
:1073380018498B4218D309F0C1FC186850F822404C
:10734800586840F82240013298688242F5D30C33DD
:10735800EAE70022F8E71C6844F8220001325C687A
:10736800A242F8D30833E4E70022F8E70800002037
:1073780000ED00E00040000000A000440080004450
:1073880038420000344100001871030024710300E2
:107398002471030024710300F8B5EFF3118630233C
:1073A80083F31188304C94F85C34002B56D14FF09D
:1073B800B041C4F86034C4F86434C4F8FC324B6893
:1073C8000BB1FDF78BF901220020284B5A60886029
:1073D800274842600222CA606022CA631F229A615B
:1073E8005A614FF0B0439A6A12F00802FBD11A6250
:1073F8005A685B680BB1FDF771F901251C4F0A202B
:107408007D60FDF76BF94FF0B0434FF48062DD60AB
:10741800184BC3F88021FFF749FFBD61EFF31187CF
:10742800302383F311880D20FFF776FB024687F39C
:107438001188BFF36F8FC4F8680428B986F31188E0
:10744800BFF36F8F2320F8BD002340F2E7310A48CD
:1074580028F062FF84F85C54C4F86C0486F3118841
:10746800BFF36F8F0020EEE70810002000200058BF
:107478000010005800E100E018FCFFFF08B5EFF32A
:10748800108072B6034BD3F870342BF0B4FF184653
:1074980008BD00BF081000202DE9F041046805462A
:1074A80094F89420002A5CD1EFF31183302181F302
:1074B8001188C4E9162283F31188BFF36F8FFFF791
:1074C800DDFF854202D1104622F0F6FB236E264FDF
:1074D80093F910603046FDF72BFC3046FDF706F9AE
:1074E800236E93F911603046FDF722FC3046FDF714
:1074F800FDF897F87433207D43B1072806D807EBC9
:10750800001393F874310BB1FFF73AFD207D22F098
:10751800A7FBEFF31188302383F311880023134A64
:10752800167B76B90133082B02F11002F8D1152029
:10753800FDF7DCF8FF220E4B5E659A625E6087F805
:10754800746388F31188BFF36F8F0023C5E9003394
:10755800C5E90533EB60236E2046BDE8F041DB68E2
:1075680018470F20BDE8F081081000207011002096
:107578000000045010B510B9FFF780FF28B1436828
:107588001BB1BDE8104000681847232010BD07B59F
:1075980001228DF807100DF10701FFF7EBFF03B08B
:1075A8005DF804FB0B4601461846F0E710B50446A3
:1075B8001FF048FF28B1006818B12146BDE8104007
:1075C800E5E710BD302337B5007D0DF107014343D2
:1075D80003F1A04303F58023DD6E1C6F2BF0F0FE52
:1075E8009DF8070040B9054B9D4203D184F0020481
:1075F800C4F3400003B030BD0120FBE77D13002039
:107608003021037D02464B4303F1A04303F5802359
:10761800D86E07491B6F884208D113F0020006D0C4
:10762800106A136D1B1A5842584170470020704762
:107638007D1300202DE9F04F044685B0007D04F14C
:107648003806FDF755FC00211022304629F092FC3F
:107658004FF0300B4FF44473DFF80CA1207DDFF8B6
:107668000C910AF2753763870BFB0093C4E90F7717
:10767800DB6EBB4204D105B0BDE8F04FFDF75ABC44
:107688000DF10F012BF09CFE9DF80F70002F62D1B9
:107698002046FDF7A8FA9AF874238046237DEAB1BC
:1076A800072B1BD80AEB031A9AF87421B2B1EFF32F
:1076B80011818BF31188D9F834000BFB0399D9F8A1
:1076C800642081F31188BFF36F8F012101FA03F35E
:1076D800034204BFC2F30A135F183D4604F11807BA
:1076E800102200213846D4F8109029F043FC3022AB
:1076F800237D013D5343C5F30A052D0145F040752F
:10770800C4E9065903F1A043C4F8208003F5802397
:107718001A6F94F82410520862F3410184F8241077
:10772800196F94F8242027F0030761F3000284F806
:1077380024201B6F626A9B0863F39F0247F00207CD
:10774800626267640094207D32462146054B22F030
:1077580093FB207D8FE794F844306FF3410384F85E
:107768004430EFE7A9790000081000200000045019
:107778002DE9F04F9B460023044689B005910392FA
:10778800CBF80030DBF80050039B5E1B00F0A180B3
:10779800059B5D1900F09D80207DFDF7A9FB204623
:1077A800FFF72EFF8146207DFDF7C4FBB9F1000FDE
:1077B80040F08F802046FDF716FA216D94F89A80E4
:1077C80088429CBFD4E91203C018401A864228BFD9
:1077D8000646B8F1000F00F0AC80EFF31183049374
:1077E800302383F311883746D4F850A02046FFF79A
:1077F800E9FE0AEB06029245D4F89C1072D1D4E94E
:1078080012231344994208BFC4F89C20049B83F3B5
:107818001188BFF36F8F8046207DFDF769FB0DF15E
:107828001F01207D2BF0CCFD2046FDF7DCF9D4F8B4
:1078380050A08146504540F28A80A36CB5B29A4563
:107848007DD123691022049304F1280300211846EE
:1078580029F090FB3021049A013DC4E90B2A227DCE
:10786800C5F30A054A432D0120F0030302F1A042A3
:1078780045F0407543F0020302F58022A5621367C4
:10788800236DD4E9121233440A44934208BF0B46CD
:107898004B45236505D10123204684F85430FFF772
:1078A800C9FE207DFDF746FB94F89A303BB1B8F14C
:1078B800000F04D0236E112120465B689847DBF83F
:1078C800003037B1039A3B449342CBF80030FFF4C1
:1078D80059AFDBF80030002B14BF00201B2009B083
:1078E800BDE8F08F0AF1010A0AF1FF33994210D17D
:1078F800C4F89CA01AF8013C112B01D0132B14D109
:10790800013FA3F111014B424B41C14684F8A0301D
:1079180071E71AF8013C03F0FD01112906D1013F76
:10792800B9F1000F3FF467AFEBE7C14605F8013B3B
:1079380061E7324628462AF082F937466CE7238DFC
:10794800C3F30A12154465F30E13238598E79DF8CF
:107958001F30207D93B93023434303F1A04303F53F
:107968008023596E5A6EC1F30A1122F4FF42314442
:1079780022F0700242EA01125A6681E7CDE90064FA
:107988004A462369216822F00FFA3022237D5343A7
:1079980003F1A04303F580235A6E22F48012EBE72B
:1079A80092F8543037B5144633B1936D0BB1D06D9E
:1079B8009847002384F8543094F89A301BB3204633
:1079C800FFF700FEF8B1236E132120465B68984745
:1079D8001025236E20461B680DF10701984778B9DA
:1079E8009DF8073003F0FD02112A05D1A3F1110219
:1079F8005342534184F8A030013D15F0FF05E8D10A
:107A08002046FFF717FE002084F8540003B030BD6D
:107A18001A2813D8102815D940F28523A0F111028D
:107A2800D2B2D340DB070DD50122074B80F02000EE
:107A380083F8750483F874247D2003E0A0F17D03A6
:107A4800012BF1D9704700BF0810002049BA89B24C
:107A580080EA0103C3F303125340180380B258406D
:107A68005B0103F4FF535840704708B5302383F394
:107A780011884FF20F02034B18805A80BFF35F8FB3
:107A8800FDF73AF9144500206C4A2DE9F0416C4B9A
:107A980055686C4C9D65516AD9656B49D1F80002EF
:107AA8001866D1F80412986B5966916A10F0040FA1
:107AB8009966D16A4FF00000D966116B1967516B4E
:107AC8005967D26B18659A67D3E90F1218BF114628
:107AD8005E4A91425A655DD301F12000A04259D80F
:107AE8008869C5F308055864CE69062D9E6455D18A
:107AF800574DA84252D3574DA8424FD205884DF64C
:107B0800426085424AD15868C3F894009868C3F81F
:107B1800980040F20170A242154604D22E68043241
:107B2800B6F1CD3FF7D00022C3E91F22C3E92122D5
:107B3800C3E92322641BDFF818C1424DDFF814E1C2
:107B4800DC648D422DD8D3E91FC7D3E92165D3E979
:107B580023414FF0000E013AD2B2FF2A3BD1BEF1C9
:107B6800000F05D0C3E91FC7C3E92165C3E9234155
:107B7800B3F85830C3F308030C2B3AD8022B53D967
:107B8800DA1E092A50D8DFE802F030563F424F4F3C
:107B98004F4F4F4C0021C3E911112C494FF420607D
:107BA800B9E755F8044D6445CBD37445C9D2E60707
:107BB800C7D50026284F57F8048FA045C1D00136F5
:107BC800062EF8D12AB1013AD2B203EB8206F46745
:107BD800B7E70522F9E7E0464FF0010EBC46374605
:107BE8002E4625460C464146B5E740F60120BDE83D
:107BF800F0813B2B18D1194B9B6913F0020F40F20F
:107C0800025318BF1846F2E740F60320EFE740F2A8
:107C1800017240F60423B0F5206F14BF10461846D1
:107C2800E5E740F60520E2E740F60722013B4B2B4B
:107C380098BF1046DBE740F60220D8E700ED00E0E9
:107C4800144500200810002000E100E00800002092
:107C580038420000803603008C4500200080015A1D
:107C68000B4AB2F908301089002BB8BF80F06200C7
:107C7800B2F90A104300138153890029BCBF83F469
:107C8800805383F00B03590051815840704700BF5F
:107C98000C48002010B50A4B93F8762412F0020025
:107CA8000DD193F8771493F878448C421FBF62F093
:107CB8007D02A3F87A0483F87C1483F8762410BD37
:107CC80008100020074A92F97D34002B09DB92F84E
:107CD800763403F04101402904BF43F0050382F8DC
:107CE800763470470810002038B50E4C04F59065BE
:107CF80094F8772494F885349A4200D138BD284600
:107D08001FF024FBB4F88234834204BF012384F8B3
:107D1800843494F88534013303F0070384F88534F8
:107D2800E6E700BF08100020064BB3F88224B3F83A
:107D38008614914204BF012283F884240022A3F808
:107D480086247047081000207028034607B504D120
:107D580003B05DF804EBFCF7AFBF074A3D2092F88B
:107D68008814019192F87D2404490092022205F0BA
:107D78007DFD03B05DF804FB08100020E03B030024
:107D880007B50346009102223D20034905F06EFD28
:107D980003B05DF804FB00BFE13B030007B5064BE9
:107DA800022293F87D343D2000930449812305F095
:107DB8005DFD03B05DF804FB08100020E13B030003
:107DC800F8B500240646274630462AF0CFFC8742FD
:107DD80000D3F8BD30462AF0C9FCC51BEDB2202DF2
:107DE8003946304628BF20250BF00CFA002C08BF76
:107DF80042244219904202D13D44EFB2E4E710F820
:107E0800013B634000F8013C04F00103C4F347045C
:107E1800002BEFD084F0B804ECE7FEE7002307B5A9
:107E2800084601A901931FF0F1F9019803B05DF824
:107E380004FB0148FCF7DEBC94140020002313B5B2
:107E480001936AB161B102FB01F401A920461FF058
:107E5800DDF9014620B9019810B1224629F08AF8C7
:107E6800019802B010BD002303604360704730B52D
:107E7800D0E9054553B394420FD0E2B9046974B907
:107E8800036983B3002918BF0D462B78DB0714D587
:107E9800AB8843B3A5EBC305F7E704698CB141B9D7
:107EA80004682378DB070CD5E3884BB104EBC304E3
:107EB800F7E70C46F5E79542E2D0C0E9054530BD45
:107EC8001C469542DCD0002ADAD0F6E7944208D066
:107ED8008C4228BF0C46954207D08D4238BF0D46CC
:107EE800EBE70C46F7E71D46E7E70D46E5E7002315
:107EF8002DE9F3478C4E0193D6F890340C469A42FC
:107F0800104604D239B912B101A91FF07FF90198BE
:107F180002B0BDE8F08722B906F28C40FCF76AFC93
:107F2800F5E7EFF31187302383F3118834F8063C23
:107F380007304FEAC30820F00705A845A1F108015A
:107F48007FD234F8020C002868D0C21A012A65D101
:107F580001EBC00211F83000C0075FD4B2F802C0CC
:107F6800A8EB050919EBCC0958D4B9F11F0F38DD76
:107F7800C5F3CF03611924F8063C0133084624F8F9
:107F8800023CFFF770FF34F8020C4FEAD9038880EF
:107F9800D0884B8010B3B2F802C0A0EB0C0C1CFACE
:107FA80083F39BB202EBC000CB80838000235F4841
:107FB800FFF75DFF1046FFF756FFD6F89434D6F862
:107FC80098242B44A3EB080393420194C6F89434F5
:107FD80034D887F31188BFF36F8F98E70023CB80DD
:107FE800E4E7D6F89C0401330138C6F89C04D0882D
:107FF800634424F8063C68B1B2F802C0A0EB0C0C4C
:108008001CFA83F39BB202EBC00024F8023C838085
:108018000123CCE7002324F8023CF9E7284601A90C
:108028001FF0F4F80028D4D121464246019829F0DF
:1080380006FE21463D48FCF7DDFBCAE7C6F8983442
:10804800C7E76ED934F8020CA8EB050900F1FF3A2E
:10805800AAEB030A002839D011F8303001EBC0022E
:10806800DB0734D4BAF1000F31D1C5F3CF0361195E
:1080780024F8063C0133084624F8023CFFF7F3FED7
:10808800508800EBD90334F8020C4B808880D088E4
:10809800D0B1B2F802C0A0EB0C0C1CFA83F39BB26F
:1080A80002EBC000CB80838020480023FFF7DFFE6F
:1080B8001046FFF7D8FED6F8943401941D44A5EB7A
:1080C8000805C6F8945484E7C880EDE70246B9F17C
:1080D800270FF0D9C5F3CF03611924F8063C013303
:1080E800084624F8023CFFF7BEFE34F8020C09F1FA
:1080F800FF33DB084B8088808AB10AF1010A1AFA3B
:1081080083F39BB2CB809380D6F89C340748013325
:10811800C6F89C3400231A46FFF7A9FECBE7CA80AD
:10812800F2E7019455E700BF0810002094140020DE
:1081380003464160EFF3108072B6044AD2F8EC129D
:108148001960C2F8EC322BF056B900BF08100020B5
:1081580001234FF0604207480749C0F8B434D2F809
:10816800003E00F5976043F48073C2F8003EFFF7C5
:10817800DFBF00BF081000203848002038B5084C81
:10818800D4F8B4340BB9FFF7E3FF0025054B0648D4
:10819800C4F8C434C4F8CC5421F08EFD284638BD48
:1081A80008100020C54A0000C81400200146EFF35B
:1081B800108072B6084AD2F8EC3202F53B722BB145
:1081C800994205D10B68136000230B602BF013B99B
:1081D8001A461B68F3E700BF081000207047012209
:1081E800014B83F8F0227047081000204FF0B0438D
:1081F8009A6A1207FCD4186A704708B52BF06AF916
:108208004FF6FF73002818BF0346024AA2F87A34D3
:1082180008BD00BF081000204FF07E62F8B54FF689
:10822800FF73B2F84670B2F84460174D9F4208BF1A
:108238004FF448679E4208BF4FF4C876B5F8D0445B
:1082480060B16400A5F8D044B5F8D034BB4215D964
:10825800A5F8D0740023A5F87A34F8BDB5F87A34B7
:10826800002BF1D02BF036F9B5F87A34C4EBC404FE
:10827800C01A80B204EB8004E408E3E7B34238BFD5
:10828800A5F8D064E6E700BF08100020F8B5B84CA0
:10829800B4F87A34BBB32BF01DF9B4F87A34C01AA9
:1082A800B4F8D03400B298422DDB94F876345806EE
:1082B80029D5990794F877244CBF94F87C3494F81E
:1082C80078349A4236D00120FFF7A6FF7320FFF7D3
:1082D8003BFD4FF07E624FF6FF7194F8D6340133C0
:1082E800DBB284F8D634B2F848208A4208BF0322A9
:1082F80093421CDD5123722084F8D734FFF724FD04
:10830800202384F876349B4D94F9762494F87634B7
:10831800002A1CDA13F0300310D01A20FFF746F9B0
:1083280094F8763403F07F0384F87634ECE7FFF7AB
:10833800B1FCE8E70023A4F87A34E4E794F8D824F9
:10834800022AEDD1A4F87A3484F8D834E5E794F811
:10835800D824012A00F0FB800DD9931E012BD3D815
:1083680094F8E814FF2900F00B81002940F0F88008
:1083780094F8D914F2E09A0719D594F87C2494F863
:10838800776494F87804B11A821A02F0070201F0AF
:108398000701914298BF84F87C6494F87C24824257
:1083A80005D123F0020384F87634FFF79DFC94F896
:1083B800766416F0300F20D0B70618D5C22394F88B
:1083C800D70484F8D934022384F8DB0484F8DA3437
:1083D8000320012326F03C0684F8766494F8D91427
:1083E80084F8D8341FF040F8FFF7E0F88CE7C12391
:1083F80084F8D934FCF7BBF9E5E716F00C0F23D065
:10840800700794F8DC1413D56039C9B2802084F859
:10841800D914FFF7B5FC94F8763403F0F30384F825
:10842800763494F8DC3484F8DD3401231846D5E733
:1084380081F080017E2084F8D914FFF7A1FC94F81C
:10844800763403F0F703EAE7B1072ED594F87C6495
:1084580094F88534F61A06F00706EFF311873023EF
:1084680083F31188B4F880042BF0F6F8AEB987F3DB
:108478001188BFF36F8FA4F8DE042AF077F994F817
:108488007C2494F8DC34013043EA021343F00803F7
:1084980084F8D934C0B20323A0E70146013EB4F8FA
:1084A80080042BF0DEF8F6B2E0E74FF07E634FF67B
:1084B800FF70DB8F94F87714834208BF052394F884
:1084C80078240B44013B521A5B1A02F0070203F0AE
:1084D80007039A4230DCB4F8D464AEB1264B18884E
:1084E800C4F8E4342BF0B8F8A4F8DE042AF03EF916
:1084F80094F8782494F8DC34013043EA021384F8C1
:10850800D934C0B2022369E7B4F8D234A3B194F8DD
:10851800E0346BB12AF0DEFF94F8E034C3EB1010BE
:10852800020607D484F8E064B4F8D434002BD5D11B
:10853800124BD4E7002BF7D094F8DD2494F8DC3400
:108548009A4244D094F8763443F00803ECE694F861
:10855800E834FF2B2FD0234493F8D914002041E7A7
:10856800013989B2B4F8DE040AF05EFE0146F5E787
:108578000810002088140020DC140020DA140020E1
:10858800022A1CD194F87834D4F8E404013303F0B7
:10859800070384F878341EF0D9FE2846B4F8DE14B0
:1085A8002BF042F8B4F87A340BB9FFF726FE94F8AA
:1085B800DC3484F8DD34002384F8D834A4E694F855
:1085C8007C34013303F0070384F87C34EAE7F8BD10
:1085D800F8B504460D46EFF31186302383F311886E
:1085E80090F89630A9B17BB990F8983063B1EFF361
:1085F800108572B60121084629F028FD0123284676
:108608002AF0F9FE84F8963086F31188BFF36F8F4D
:10861800F8BD002BF8D0EFF3108772B6012029F0CF
:1086280015FD38462AF0E7FE84F89650ECE72DE968
:10863800F84F90F8943004460D461646002B40F04B
:108648008F8090F89970EFF31188302282F31188A7
:1086580090F8952072B190F898205AB180F895302A
:10866800EFF3108972B60121084629F0EFFC48465D
:108678002AF0C1FE88F31188BFF36F8F4FF03008DE
:108688002E44AE4205D1236E012120469B689847AF
:1086980054E094F89A30002B3ED0207DFCF728FC5B
:1086A8002046FEF7ADFF0146207DFCF743FC99BB51
:1086B800EFF3118988F31188207DFCF719FC204617
:1086C800FCF791FAD4F848A0411E514538BFE16C37
:1086D80094F854B038BF01F1FF31207D38BF5144C0
:1086E800FCF728FCBBF1000F12D10B46D4F89C0014
:1086F80098420BD013F80129112A01D0132A20D14E
:10870800A2F111035A425A4184F8A020C4F89C10DF
:1087180089F31188BFF36F8F94F8A030002BB0D085
:10872800236EA9462A785B6897B9236E20465B6852
:1087380099F80010013598470028A2D00020BDE81C
:10874800F88F9A4582BFE36C03F1FF335344CFE7B8
:108758000A2AEAD10D21204698470028E5D0EDE7FE
:108768000E20ECE7F8B51E4DD5F8B4340BB9FFF779
:10877800EFFC00231B4CC5F828352378532B01D078
:1087880004F07AFFEFF311834FF0200181F3118891
:10879800154A0026C4F8B021012720221348C4F83E
:1087A800B401C4F8B821C4F8C061C4F8BC61C4F805
:1087B800C47183F311880E4B1038C5F82C350D4B56
:1087C800C5F8343521F078FAEFF3108472B63846DC
:1087D800394629F03BFC20462AF00DFE3046F8BD0C
:1087E8000810002000500020033703004015002027
:1087F800ED4A0000274C000000232DE9F04FB9484E
:10880800B94ABA4CA1B0121AC4F88C04C4F890241E
:1088180084F8A834C4F8B034C4F8A004C4F8A40494
:10882800FFF721FB0123013AD2084280C4F89C34A7
:1088380008230EA8C4F89434C4F89834FEF706FC4C
:108848009DF83930012B27D1A94A936DDE0313D443
:10885800536B23F4FF0323F4FE4343F4BC1343F4A4
:10886800A0635363136B23F4704343F440431363CF
:10887800136B43F4E06313639DF8383063B94FF02A
:1088880000531B689B4B1B689B4B1B689B4B1B68CF
:108898009B4B1B689B4B1B689B4AD2F8803043F06C
:1088A8000303C2F88030EFF31183302282F311887A
:1088B80094F85825002A40F0F287012284F85825B8
:1088C80083F31188BFF36F8F6FF0040350218F4833
:1088D8008F4D13F0800F03F1010240F0D8872B442D
:1088E8003D2A83F800131346F3D18A4BD3F84C2161
:1088F800150340F1DA87A3F5FE431D88B5F5807F9F
:1089080028BF8025844B854E94F9387473607E4B5C
:108918002F441B6F87F3080703F00703032B01D1CC
:1089280029F062FA1EF05CFE032842D045F60E03D9
:1089380002216F4AC2F88030794B9962012103F510
:1089480080539962936DD803FCD4764B76491361B2
:10895800936903F0004343EA074343EA052343F0DE
:10896800407343F03C039361136A23F00D031362D1
:10897800936A23F0330343F0010393625C4A936DD7
:1089880031EA0303FBD10221654B9962936D5900CB
:10899800FCD4136923F4700343F4001313614FF0FC
:1089A80000425F4B9A61022203F580539A620122CA
:1089B8009A62584BD3F898505C4B5A68012A00F0D9
:1089C80079871EF00DFE042807D159481EF01EFEB7
:1089D8004D4A136F43F480631367564A25F040737A
:1089E800D16811F006010691FAD1916893609068F8
:1089F800434013F4F81F0ABF4D4B916033601EF0DB
:108A0800EFFD042812D129F0EFF91EF0FFFD012037
:108A1800FEF782F848493C4A884294BF002001206A
:108A2800136F23F4806343EA80231367394B434A67
:108A3800D3F8C030344D23F0407393602F6F3C4817
:108A4800C7F380277B1C84F859351EF0DFFD2B6F98
:108A580043F480632B672B6F23F0070343F0030372
:108A68002B6729F0C1F91EF0D1FD2B6F23F4806329
:108A780043EA87232B672B6F23F450532B67234B31
:108A8800D3F8FC20D70140F11C87D3F8FC2022F052
:108A98008072C3F8FC20D5F8802022F0030242F04F
:108AA8000202C5F88020D3F8FC2042F08072C3F897
:108AB800FC20154BD3F8202122F0070242F00202D5
:108AC800C3F82021D3F8802122F0030242F00102EA
:108AD800C3F88021D3F8402122F0030242F00102BA
:108AE8002EE000BFC8590020000001200810002017
:108AF80000C00050004000200080002000C000207E
:108B080000000120004001200080005000ED00E03E
:108B180000E100E00080E00F00F049020C4800206E
:108B280000D000502008B00B0300014000C00150E5
:108B380000B4C4040000015080F0FA020040015A59
:108B4800C3F84021D3F8602122F0030242F0010269
:108B5800C3F86021D3F8402222F0030242F0010258
:108B6800C3F84022D3F8002222F0070242F00102A3
:108B7800C3F80022D3F8082222F0070242F00102CB
:108B8800C3F80822B74A536A23F0010353624FF02F
:108B9800E022136943F004031361EFF3108872B6FF
:108BA80094F85A35002B40F0CE86FEF7F5FB0028E6
:108BB80000F0B88640462AF01EFCFEF7EDFB726B0B
:108BC8004FF40031501C04BFA74BD3F894204FF04A
:108BD800502308BF72631967D10700F14387012149
:108BE8000D46084605FA00F3134001F1010100F0B3
:108BF8003C879E4B03EB4003B3F8A431DFF8B8B2CF
:108C0800062BBBF80020BBF8021040F037874FF264
:108C18000F03994240F02E87B2F5406F28BF4FF4FA
:108C2800C0624CF23C33A4F8E822ABF80230904A18
:108C3800536A43F470235362EFF308834FF0CD3146
:108C48008C4A043B934280F02B870222864B1A679A
:108C5800FEF7A2FB18B16A21874829F0F9F81EF03F
:108C68009DFE4FF4005021F09FF94FF40053C4F8D3
:108C78006C05C4F87035002800F01687D4F86C35F8
:108C88001BB9DE217D4829F0E3F8D4F87035D4F813
:108C98006C2523F001031344C4F87425C4F878350F
:108CA800C4F87C25002A40F00B87F821734829F086
:108CB800CFF800239B6AB3F5804F61D21A68704BD6
:108CC8009A425DD194F8805515F0FD0558D194F875
:108CD8002C34002B00F0FB86022384F82C34082265
:108CE8004FF48037674B0320C3F88021664BDF6061
:108CF800FEF7DCFA654B1F6100239B6ADB69984726
:108D080094F82C340746012B40F0A387FBF766FE46
:108D1800013040F08D87D4F894255D4B1A66D4F85D
:108D280098255A66D4F89C25C3F87021D4F8A02554
:108D3800D00700F18A87B36B013313D194F88035DB
:108D480083B9544A5268D20748BFB363524B5B6831
:108D5800D80744BF0123B363504B5B68D90744BFAE
:108D68000223B36324F0B6F9D4F8843583F3118869
:108D7800BFF36F8F84F82C5417B9012384F880351A
:108D8800FDF7C2FE4FF44073012204210EA8ADF88E
:108D98003830FBF7DBFF0122414BC3F84424EFF3E3
:108DA8001185302383F311880C20FDF7B5FE85F378
:108DB8001188BFF36F8F2E4B00F5D520D3F8F02024
:108DC80000F2FC4042F00102C3F8F020D3F8FC2086
:108DD8002C4D42F08072C3F8FC20324AA3F55D4363
:108DE8001A60314B0222B0FBF3F0304B01381861A6
:108DF800C3F8F0204FF48072C3F804234FF06043A7
:108E08002B4AC3F8B02F2B4AC3F8802ED3F8002E74
:108E180042F48072C3F8002EFF2283F82020D3F892
:108E2800002E22F48072C3F8002E2B689A0106D413
:108E38004FF000731920C5F88031FEF737FA2B6818
:108E48005B0106D44FF080631A20C5F88031FEF725
:108E58002DFA94F8A51594F8A43502292ED1072BDC
:108E680046D02BE000C0075000400050FC3F0300F4
:108E780000ED00E008000020C03603007937030049
:108E880007B0CD5E00E100E000A00044009000447F
:108E9800008000440080055000C0055000000650C6
:108EA80000D00350FF030040F8590D00000004E013
:108EB80055CEACC50900010014450020DF0703D4D6
:108EC80043F0010384F8A43594F8A4359D075FBFE7
:108ED800012243F0020384F8A43584F8AC2694F800
:108EE800A42511B9D00700F1B786510740F1BC8617
:108EF800FFF744F9BB49BC48FFF71AF907F0A7FC8C
:108F0800FFF730FCEFF3108372B6C4F8B835FDF7FD
:108F1800FBFD002800F0AE860027012504F0D6FDF1
:108F28001EF03CFD012028F0A9F921F061FC142273
:108F380000210EA828F01EF8AC4B0EA94FF0FF3008
:108F48000F9328F0E1F90EA94FF0FF30CDE90E7725
:108F58008DF83A5028F008F96FF00A014FF0FF3009
:108F680028F0D5F9A24B84F8B156A24DC4F8B276D0
:108F78005F609F60D5F8FC311020C3F30743099365
:108F88000BF040F910F0800F384600F083860BF0A4
:108F980039F903060CD5099B802B40F070862B6AA3
:108FA80013F0020F00F08A86EB69990740F1868674
:108FB800914828F00BF891499148FDF7D7FC0546F0
:108FC80018B3D6E90401B36A00251B689847B36A49
:108FD8000EA89B689847B36A0220DB6898470F98E9
:108FE8007369E9B2B3FBF0F38B42B26A05F101058C
:108FF80000F26986D36800209847B36A5B6898478F
:109008007E497F48FDF7B2FC05464FF000097D4ECA
:109018007B4F06F5167306F5E07A0593FDB97A4B92
:1090280019F80330002B00F0A586D6F800803846E2
:1090380041460AAB0CAAFCF723FD2D2807D070B9CE
:109048000C9B012B0BD041463846FDF78BF9DAF81B
:109058000030414638461A68FDF740F90546059B39
:1090680009F101090133B9F1260F06F104060AF1E5
:10907800040A0593D2D1B5FA85F3644E5B0986F8E4
:10908800BE3696F810331BB1DB21614828F0E0FEAC
:10909800002D40F01386DFF8B891082249465D4854
:1090A80004F01AFD5C4A0AAB106851680DF13008EB
:1090B80003C303C329461A4658480E95CDF83C8089
:1090C80003F040FE68B90E9A082A0AD141460AA858
:1090D80028F0C2FD28B1434603CBC6F8BF06C9F83D
:1090E8000410002301221F46C6F8CC264C4AC6F8B5
:1090F800C83686F8D8360133082B5760978042F86F
:10910800087FF8D148220021464827F033FF4FF660
:10911800FE73A6F840376FF480338022002142485E
:10912800C6F8343727F026FF404B86F81C77C6F878
:109138002077C6F8247786F82877C6F82C77C6F8FB
:109148007837C6F87C7786F88077FEF789FDFF23A5
:109158002C22002186F804080EA886F8053827F086
:1091680009FF64234FF002321393CDE910230B2338
:1091780001218DF86030B6F806382D4F13EA010A40
:109188008DF83C1040F00181084629F033FA0A2393
:1091980086F808384FF42873ADF83E304FF0FF33A7
:1091A800C6F80C38234B244A1B882448A7F85430A7
:1091B800234B07F144011B68A7F85AA0FB65214B14
:1091C800C7F864A01B88A7F856301F4B1B683B667E
:1091D80027F008F800283DD04FF41B711B4828F0F1
:1091E80037FE37E048480020B8150020006A18000C
:1091F800BA1600200080E00F690345EC1C480020E7
:1092080008130020004003007E42030008100020DD
:109218008D37030034B608C00E3C03002AE1010074
:10922800E0160020381700208C1700200000FFFFF0
:109238000C4800203E4F0300852603001418002028
:10924800444F03003C4F0300404F0300DA3703004C
:10925800C71600200521D6F80C0827F005FF20B115
:1092680040F27D21D04828F0F3FDD6F80C0821F013
:1092780049F90023CD49D6F80C0886F810384FF084
:109288000C0A27F0E4FF29F09BF90AFB00F0149080
:1092980029F096F90AFB00F00EA91290D6F80C08EE
:1092A80021F002F920B140F29521BF4828F0D0FD05
:1092B8000022BF49D6F80C0828F046F820B140F241
:1092C8009721B94828F0C4FD40F20353A6F8143892
:1092D800052386F8163809F085F886F8170829F066
:1092E8006FF900EB80008000A6F8180829F068F9EB
:1092F8000023C0004FF0FF31A6F81A08C6F81C3842
:109308004FF0FF30A6A3D3E9002329F02DF9A9498E
:10931800D6F80C0827F0CCFF4146D6F80C0828F000
:1093280038FC20B14FF434719F4828F091FD042295
:10933800D6F80C080AA927F02FFF042804D040F219
:10934800D721994828F084FD0AA81DF05DFDFBF798
:109358003FFA012009F00AF8B6F80638DB0712D5FB
:10936800002241F20D019448002329F0FDF808225B
:10937800D6F80C08114627F0FAFE20B140F63671EF
:10938800894828F065FD08F06FFF1DF03FFD8B4808
:10939800B0F868806C300AF001FC0023A6F8203889
:1093A800A6F82238864B874AA6F8248803F10C01D0
:1093B80053F8040B8B4242F8040BF9D11B880021A7
:1093C8001380072334220EA886F8663827F0D2FDCA
:1093D8000B238DF838306FF480330F934FF6FE73FC
:1093E800ADF8483003238DF85530774BD6F8BF06D3
:1093F8001693764BD9F804101B93754BDFF81C8233
:109408001C93744BCDF85C801D93734B1E93734B68
:109418001F9310AB03C30EA900201EF05DFB0EA91D
:1094280001201EF059FB042200200EA927F0B4FEEB
:10943800042803D0D7216A4828F00AFD0E98FBF7C4
:10944800C7F916F065FA97F88C20FF2102EB420263
:109458009200644827F08EFD634B6448C6F81C3AB6
:109468000023C6F83C0A6248624AC6F85C0A6248A9
:109478006249C6F87C0A6248C6F8182AC6F89C0AE7
:109488006048C6F8203AC6F8BC0A5F48C6F8241AED
:10949800C6F8DC0A5D48C6F8283AC6F8382AC6F87D
:1094A800403AC6F8441AC6F8483AC6F8582AC6F8E0
:1094B800603AC6F8641AC6F8683AC6F8782AC6F850
:1094C800803AC6F8841AC6F8883AC6F8982AC6F8C0
:1094D800A03AC6F8A41AC6F8A83AC6F8B82AC6F830
:1094E800C03AC6F8C41AC6F8C83AC6F8D82AC6F8A0
:1094F800E03AC6F8FC0A464897F88DE0DFF8209174
:10950800C6F81C0BC6F8E41AC6F8E83AC6F8F82AF2
:10951800C6F8003BC6F8041BC6F8083BC6F8182B6B
:10952800C6F8203BC6F8241BC6F8283B02F58E6017
:109538005FFA85FCE64500F1200000F22184002551
:10954800DFF8E090C6F84257C9F80450FEF788FBE8
:1095580086F8580BFEF784FB0523482286F8590B3A
:10956800A9F112010EA886F85A3B28F068FB294B8E
:10957800164A18931B92284B154A19931C92164B9E
:10958800144A1A93CDE91D23144B28460EA9CDF889
:109598005C801F931EF0A0FA30204FF0010C43E0CE
:1095A8000A0020FF42030000DA370300F0420300FC
:1095B800C716002035250300400D03000C48002085
:1095C800F64203002E18002067330100499A010073
:1095D800852C0100DD930100E11A0100BD8B01001B
:1095E800C036030070180020E58B01001D560100ED
:1095F8009D920100D016002061370200BF3603009B
:10960800310602006D95010015B000003D1A0200F8
:10961800654101006924010055B000000D310100C9
:1096280089B301004A170020EFF3118180F31188F4
:10963800D6F8C826002A40F0AC8381F31188BFF31E
:109648006F8F0023D6F8CC86B8F1010F40F0B383B2
:109658000025FF20C6F8CC8617F048FA0BF066FE06
:1096680016F044FE0BF00EFB10F054FE40464FF08F
:10967800FF0897F88E30984A43F00403A6F85E3B3B
:109688009649022386F85B5B86F85C5B0AF070FDFE
:1096980097F88F2041469200914886F8625B86F8D9
:1096A800638B27F067FC4FF6FD7386F8845EA6F897
:1096B800863E86F8855E86F8885E86F8895E0BF0B9
:1096C800BBFE32222946874886F88A5E86F88B5E7A
:1096D80027F050FC84480AF061FA844D86F8C08E61
:1096E80086F8088F86F8508F86F8988F86F8E08F6E
:1096F8007F4E05F0B2FE05F0AFFE41F658317D48C9
:1097080029F0F8F845F8D06C11F045FD7A4B083689
:1097180014224146A5F1C40045F8CC6C45F8C83C74
:1097280027F028FC01230025B4F8E822DFF8BC81E3
:10973800B2F5406F48E92C534FEA12236F4A4FF0B5
:10974800010138BF02EB8302042000926C4A20F02A
:10975800A1FAB4F8E8326B4A190A02EB8102D2F88E
:109768001C23D9B202EB810200920121664A04202F
:1097780020F090FA0123B4F8E822120A934040F24C
:10978800A172134240F01D83012108F8A01CEFF3D9
:10979800108572B6084628F059FC284629F02BFE99
:1097A8005A495B48FEF7C4FC00210A2029F036F824
:1097B800054628F0B1FF002840F0AC840546012397
:1097C80084F884344FF07E634FF6FF72A4F8825415
:1097D800B3F84C304F4C934208BF4FF47A73A4F857
:1097E800D0340023A4F87A34FEF707FDB4F87A34AD
:1097F800002BFBD029F06EFEB4F87A34C01AB4F806
:10980800D03400B29842F1DB4FF07E634FF6FF721E
:10981800B3F84230934208BF4FF4C863A4F8D03479
:109828000023A4F87A34FAF7A2FF431EDBB20A2B0E
:1098380084F8D70400F27E8440F2035222FA03F33C
:10984800DB0740F17784C12302220290CDE9003280
:109858003D208423304904F009F8FF2384F8D734E5
:10986800D02384F87634FBF727FA03230021D4F8B1
:109878000C08A8F8483027F080FD021E18BF012206
:109888000021264821B0BDE8F04F04F083B803F06A
:109898000F03043B034419761346FFF71AB883F302
:1098A8001188BFF36F8FFFF720B8D3F85051EDB28E
:1098B800FFF728B81A494A609A699207FCD1FFF75E
:1098C80080B8D5F8803023F0030343F00203C5F8CD
:1098D8008030FFF7EEB800BF27E10100681B0020C9
:1098E8006C1B0020941E00209C48002000210020B2
:1098F80004430300BC480020D1430100A4400300F6
:1099080043380300FC3F03005B380300DC480020B9
:109918006420002008100020DF3B0300E53B030023
:1099280000E00150D4F86834C4F85C05C4F8603528
:10993800AE4BC4F8EC025A6F42F001025A67DA6E75
:1099480022F03002DA66AA48AA4AD0F80031036F3A
:1099580003F00703C4F86C339269032B02F0020189
:10996800C2F3400284F864250AD0D0F8203103F00D
:109978000703022B04D0D0F8803213F0010360D023
:10998800012384F8F0324FF4C875D4F860759A4B07
:109998007D4305F5742505F23F25B5FBF3F5002257
:1099A800D4F8F4349548C4F8F4520132D2B20A2AF1
:1099B80040F8045BF9D12B4405EBC5021344C4F805
:1099C800F43449B38A4BD3F8003103F00303022B74
:1099D80043D0032B44D0012B1ED17268E2B1854BD2
:1099E800DFF81492DB68501EC3F30B0C00231946F2
:1099F8000CF1010C0CEB8C0CECFB090126F08CFC37
:109A0800784300F5742000F23F20B0FBF9F0D4F859
:109A1800F8321844C4F8F802C7EB4717764B07F535
:109A2800742707F23F27B7FBF3F7D4F8F832C4F8E6
:109A380068551F440123C4F8F87284F85A35FFF7B3
:109A4800B9B884F8F03200299DD0D0F8003103F07D
:109A580003035D1E6B426B4193E74FF40042BEE780
:109A6800674ABCE70020FFF7C4B810297FF4B9A8FB
:109A7800FFF7C4B84FF4C062FFF7D3B840F207202D
:109A8800834209D14FF20F00814205D19A4204BFA7
:109A98004CF23C32ABF80220A4F8E832FFF7C7B822
:109AA80043F80419FFF7CEB840F2A511554828F03D
:109AB800CFF9D4F87035002B3FF4E3A8FFF7DEB8F0
:109AC80008F070FD64287FF6F0A8FFF7F2B80127C8
